:100000000C9434000C9446000C9446000C9446006A
:100010000C9446000C9446000C9446000C94460048
:100020000C9446000C9446000C9446000C94460038
:100030000C9446000C9446000C9446000C94460028
:100040000C9446000C9446000C9446000C94460018
:100050000C9446000C9446000C9446000C94460008
:100060000C9446000C94460011241FBECFEFD8E03C
:10007000DEBFCDBF21E0A0E0B1E001C01D92A43001
:10008000B207E1F70E9482000C94B4000C940000C7
:1000900080910101880F80930101199B03C0816049
:1000A00080930101809101018770843031F4909137
:1000B000030181E0891B809303010895811106C02B
:1000C0009091030181E0891B8093030108956AE008
:1000D0000E94A800292F30E1839FC0011124822BA8
:1000E000089580910001880F809300011A9903C040
:1000F000816080930001809100018770843009F451
:100100001BB808958FEF8AB914B8C0E0CF5FC93229
:1001100088F080910301813061F4809102018F5F4A
:10012000843698F480930201809102010E94670056
:100130008BB9C0E00E9448000E9471008FE39CE9E7
:100140000197F1F700C00000E1CF10920201ECCF5F
:10015000991B79E004C0991F961708F0961B881F19
:0C0160007A95C9F780950895F894FFCFB8
:00000001FF
