:100000000C9434000C9451000C9451000C94510049
:100010000C9451000C9451000C9451000C9451001C
:100020000C9451000C9451000C9451000C9451000C
:100030000C9451000C9451000C9451000C945100FC
:100040000C9451000C9451000C9451000C945100EC
:100050000C9451000C9451000C9451000C945100DC
:100060000C9451000C94510011241FBECFEFD8E026
:10007000DEBFCDBF11E0A0E0B1E0E6E2F1E002C0FA
:1000800005900D92A431B107D9F721E0A4E1B1E0C8
:1000900001C01D92A731B207E1F70E9472000C94D3
:1000A00091000C94000080911401880F809314013A
:1000B000309903C08160809314018091140187708E
:1000C000843031F49091160181E0891B80931601F0
:1000D0000895811106C09091160181E0891B8093DB
:1000E000160108958FEF8AB917B8809100018BB976
:1000F0000E945300809116018130D1F7E0E0F1E0D9
:10010000808132968BB92FEF83ED90E321508040B0
:100110009040E1F700C0000021E0E431F20781F7F0
:06012000E7CFF894FFCFC9
:100126003F0006005B004F0066006D007D00070083
:04013600FF006F0057
:00000001FF
