:100000000C9434000C943E000C943E000C943E0082
:100010000C943E000C943E000C943E000C943E0068
:100020000C943E000C943E000C943E000C943E0058
:100030000C943E000C943E000C943E000C943E0048
:100040000C943E000C943E000C943E000C943E0038
:100050000C943E000C943E000C943E000C943E0028
:100060000C943E000C943E0011241FBECFEFD8E04C
:10007000DEBFCDBF0E9477000C949E000C94000060
:100080008A309105A8F4FC01E75BFF4F85B10C9421
:100090009800530059005C00610065006A006C0024
:1000A0007100730075008E6185B98BB183608BB967
:1000B00008958C6085B908958A6185B98BB1856092
:1000C000F6CF8E6185B95A9A08958C6085B98BB147
:1000D0008660EDCF8661FACF866185B98BB1876086
:1000E000E6CF8C61E7CF8E61F8CF8E61EFCF84B120
:1000F0008E6184B98AB187608AB91092C100D0E05C
:10010000C0E085B1817E85B98BB1887F8BB9CE0186
:100110000E9440002FEF83ED90E3215080409040FB
:10012000E1F700C000002196CA30D10554F3E7CFB3
:10013000EE0FFF1F0590F491E02D0994F894FFCF86
:00000001FF
