:100000000C9434000C943E000C943E000C943E0082
:100010000C943E000C943E000C943E000C943E0068
:100020000C943E000C943E000C943E000C943E0058
:100030000C943E000C943E000C943E000C943E0048
:100040000C943E000C943E000C943E000C943E0038
:100050000C943E000C943E000C943E000C943E0028
:100060000C943E000C943E0011241FBECFEFD8E04C
:10007000DEBFCDBF0E944B000C9462000C940000C8
:1000800084B1886284B981E58CBD08958EBD0DB4BC
:1000900007FEFDCF08950E944000209AC1E0289AF3
:1000A0008C2F0E9446002898CC0FC13208F0C1E086
:1000B0002FEF83EC99E0215080409040E1F700C0A1
:0800C0000000EDCFF894FFCF22
:00000001FF
