:100000000C9434000C9451000C9451000C94510049
:100010000C9451000C9451000C9451000C9451001C
:100020000C9451000C9451000C9451000C9451000C
:100030000C9451000C9451000C9451000C945100FC
:100040000C9451000C9451000C9451000C945100EC
:100050000C9451000C9451000C9451000C945100DC
:100060000C9451000C94510011241FBECFEFD8E026
:10007000DEBFCDBF11E0A0E0B1E0EAE9F3E002C0ED
:1000800005900D92AC35B107D9F721E0ACE5B1E0B0
:1000900001C01D92AE39B207E1F70E94A2010C9493
:1000A000CB010C94000084B18C6284B980E58CBDD6
:1000B00008958EBD0DB407FEFDCF8EB508958EBD9B
:1000C0000DB407FEFDCF6EBD0DB407FEFDCF089544
:1000D000CF92DF92EF92FF920F931F93CF93DF9314
:1000E000CDB7DEB72A970FB6F894DEBF0FBECDBFEF
:1000F0008AE0E1E1F1E0DE01119601900D928A952E
:10010000E1F70E9453002A9A8E010F5F1F4F6E0184
:100110008BE0C80ED11C2A98F801E080F1800E5FB8
:100120001F4F6E2D8F2D0E945F006E2D8F2D0E9410
:100130005F002A9AC016D10671F710E02A981F5F57
:1001400060E0812F0E945F0060E0812F0E945F00CD
:100150002A9A183099F72A960FB6F894DEBF0FBE88
:10016000CDBFDF91CF911F910F91FF90EF90DF9066
:10017000CF900895EF92FF920F931F93CF9383FB3D
:10018000222720F930E093E0220F331F9A95E1F700
:10019000E62FE770E20FF32FF11DE25AFE4F2081A8
:1001A000382F377081E090E001C0880F3A95EAF768
:1001B00041111DC08095822380830EE511E0C0E0CF
:1001C0002A98CF5FF80160858C2F0E945F00F801AC
:1001D00060810F5F1F4F8C2F0E945F002A9AC830EA
:1001E00079F7CF911F910F91FF90EF900895822B97
:1001F000E3CFEF92FF920F931F93CF930EE511E0A1
:10020000C0E02A98CF5FF80160858C2F0E945F00C4
:10021000F80160810F5F1F4F8C2F0E945F002A9AA8
:10022000C83079F7CF911F910F91FF90EF9008950B
:10023000EEE5F1E02081DF0190E08C9186958C93D2
:1002400018963C91189730FF02C080688C939F5F8E
:100250001896973091F780AD869520FD07C080AF46
:10026000319681E0E636F80729F708958068F7CFE0
:100270000895FC01AC01405F5F4F20813181C901CD
:100280009695879520FD07C0918380833296E41769
:10029000F50799F708959068F7CF5F926F927F9274
:1002A0008F929F92AF92BF92CF92DF92EF92FF9286
:1002B0000F931F93CF93DF93662E742EEC0188E08B
:1002C000582E540E0FE010E0EE24E394F12CC62ECD
:1002D000D12CA990B990912C812C862D880D980154
:1002E00028193909A70102C0440F551F2A95E2F7C2
:1002F0009A012A213B21232B39F09601280D391D23
:1003000041E02031310508F040E0672D0E94BA003D
:100310005FEF851A950A80E188169104F1F67394CF
:100320007510D7CFDF91CF911F910F91FF90EF9074
:10033000DF90CF90BF90AF909F908F907F906F9005
:100340005F9008950E946800C0E010E0D0E040E0B7
:100350006D2F812F0E94BA00DF5FD830C1F71F5F79
:100360001031A1F740E060E080E091E00E944D0193
:1003700080E091E00E9439010E94F9002FEF83ECA8
:1003800099E0215080409040E1F700C00000CF5F2D
:0A039000C031D8F2D9CFF894FFCFA6
:10039A0000020006000A00120022004200FE0000CD
:1003AA0001000F0009070B0A0A010C02C6EEFED66D
:1003BA00C6C6C6007CC6C6FEC6C6C600C66C3838E7
:1003CA00386CC6007E6030180C0606003E6360304A
:1003DA000C067F00181C1E1818183C003E63637E2A
:0C03EA0060633E00000000000000000006
:00000001FF
