:100000000C9434000C9446000C9446000C9446006A
:100010000C9446000C9446000C9446000C94460048
:100020000C9446000C9446000C9446000C94460038
:100030000C9446000C9446000C9446000C94460028
:100040000C9446000C9446000C9446000C94460018
:100050000C9446000C9446000C9446000C94460008
:100060000C9446000C94460011241FBECFEFD8E03C
:10007000DEBFCDBF21E0A0E0B1E001C01D92A730FE
:10008000B207E1F70E94E5000C9402010C94000015
:1000900095B1917E95B99BB1987F9BB98A30B0F4A8
:1000A000E82FF0E0E95AFF4F85B10C94FC006100A5
:1000B00067006A006F00730078007A007F0081009B
:1000C00083008E6185B98BB183608BB908958C6094
:1000D00085B908958A6185B98BB18560F6CF8E6147
:1000E00085B95A9A08958C6085B98BB18660EDCF39
:1000F0008661FACF866185B98BB18760E6CF8C6166
:10010000E7CF8E61F8CF8E61EFCF813071F48091AF
:100110000601893030F010920601809106010C949E
:1001200048008F5F80930601F8CF823041F48091C0
:100130000601811102C089E0F5CF8150F3CF8330F1
:1001400021F41092060180E0EACF0895CF93DF9367
:1001500080910201880F80930201D0910101DD0F8F
:10016000D0930101C0910001CC0FC09300013499DC
:1001700003C0816080930201809102018770843006
:1001800019F481E00E948500339903C0D160D093B7
:100190000101809101018770843019F482E00E948E
:1001A0008500329903C0C160C093000180910001B5
:1001B0008770843039F41092060180E0DF91CF918E
:1001C0000C944800DF91CF910895249A239A229AA3
:1001D000219A509A519A529A17B888B18C6188B96D
:1001E00080E00E9448000E94A6008FE39CE90197EE
:1001F000F1F700C00000F7CFEE0FFF1F0590F4915C
:08020000E02D0994F894FFCFF2
:00000001FF
